:1000000000200020F5010000FD01000001020000B9
:100010007502000079020000C1020000000000002B
:1000200000000000000000000000000009030000C4
:100030000D0300000000000011030000D90D0000B6
:100040002503000025030000250300002503000010
:100050002503000025030000250300002503000000
:100060002503000025030000000000002503000018
:1000700025030000250300002503000025030000E0
:1000800025030000E10D000025030000250300000A
:1000900025030000250300002503000025030000C0
:1000A00025030000250300002503000025030000B0
:1000B00025030000250300002503000025030000A0
:1000C0002503000025030000250300002503000090
:1000D00025030000250300002503000000000000A8
:1000E00000B583B000F0B0F9304B314A1360314AAB
:1000F0001360314B314A03E0116819600433043254
:100100002F498B42F8D32A4B1A682E4B9A4204D1BE
:10011000284B1A682C4B9A4200D0FEE7234B2B4AFF
:1001200013602B4A13602B4B02E000221A60043349
:10013000294A9342F9D3254B1B6813B9244B1B68FA
:1001400003B1FEE700F08CF901A8694600F024F93C
:10015000224C234B1C1BA410002504E01F4B53F81A
:10016000253098470135AC42F8DC1E4C1E4B1C1B59
:10017000A410002504E01B4B53F8253098470135A7
:10018000AC42F8DC0198009900F02EFE0546174CB1
:10019000174B1C1BA41004E0013C144B53F82430F3
:1001A0009847002CF8DC284600F0D2F8BABADECA2C
:1001B00000000020A800002000000020D81D000042
:1001C000AC0000207856341232547698AC000020EF
:1001D00080060020AC0000208406002050030000B0
:1001E00050030000500300005003000050030000C3
:1001F0005003000008B5FFF773FF00BF00BEFEE725
:100200001EF0040F0CBFEFF30880EFF30980714676
:10021000414A10472DE9F04182B004468846134B0D
:100220005E6B9D6B9F6A1B6B13F0020F0DD00F4B23
:10023000DB6A002B09DA4BF6AB6100F08DF920B1D7
:100240004FF00042094BDA620CE0094800F0ACF8CC
:10025000CDF800802046394632462B4600F004F99E
:1002600000BEFEE702B0BDE8F08100BF00ED00E097
:10027000241A000000BEFEE71EF0040F0CBFEFF3CF
:100280000880EFF309807146244A10472DE9F041B8
:1002900082B007468846084B5D6B9C6B9E6A074898
:1002A00000F082F8CDF80080384631462A462346D1
:1002B00000F0DAF800BEFEE700ED00E0341A0000BE
:1002C0001EF0040F0CBFEFF30880EFF309807146B6
:1002D000134A10472DE9F04182B007468846084B83
:1002E0005D6B9C6B9E6A074800F05EF8CDF800805D
:1002F000384631462A46234600F0B6F800BEFEE7EF
:1003000000ED00E0401A000000BEFEE700BEFEE780
:1003100000BEFEE770470000150200008D020000DD
:08032000D5020000FEE700BF5A
:10032800D81D000000000020AC000020D81D0000EF
:100338000000001000000010AC000020840600201F
:0803480000000010000000108D
:10035000FEE700BF08B50D4B1B6813B90C4A0B4BE9
:100360001A600A4B1A68C31C23F00303134409499B
:100370008B4206D900F052FD0C2303604FF0FF3092
:1003800008BD02490B60104608BD00BFB000002048
:1003900084060020001C002001230360014B0B6039
:1003A000704700BF040000200FB400B583B004AB59
:1003B00053F8042B01930848802100F089FE011EA8
:1003C00003DD054800F03CF80146084603B05DF83F
:1003D00004EB04B0704700BFB80000202DE9F043E3
:1003E00085B004460F46435C13BB042528462146CE
:1003F000ABBE04461FE03546102E28BF1025002353
:1004000006E014F8011B04AA1A4402F8101C013378
:10041000AB42F6D304AA1344002203F8102CE94699
:100420004FF0040840464946ABBE8046761B00E0CC
:100430000E46002EDFD1384605B0BDE8F08300BF80
:1004400008B5FFF7CBFF08BD08B500F0D1F8024BA7
:10045000024A9A6008BD00BF00ED00E00000000005
:1004600008B500F089F808BDF8B504460D461746F2
:100470001E462648FFF798FF25482168FFF794FF9E
:1004800024486168FFF790FF2348A168FFF78CFFBD
:100490002248E168FFF788FF21482169FFF784FFC0
:1004A00020486169FFF780FF1F48A169FFF77CFFC3
:1004B0001E48E169FFF778FF1D48FFF775FF1D48EB
:1004C0002946FFF771FF1C4CE16A1C48FFF76CFFDF
:1004D000216B1B48FFF768FFE16B1A48FFF764FFC9
:1004E00015F0800F03D018483946FFF75DFF15F46B
:1004F000004F03D015483146FFF756FF1448FFF769
:1005000053FF14480699FFF74FFFF8BD0819000084
:1005100018190000281900003819000048190000B7
:1005200058190000681900007819000088190000A7
:1005300098190000A419000000ED00E0B4190000B3
:10054000C4190000D4190000E4190000F4190000D7
:10055000041A00000C1A000083691A888A4207D125
:100560000268033A012A05D80233836101207047EB
:100570000020704700207047184B1B8803F01803B9
:10058000182B21D8DFE803F00D2020202020202088
:10059000172020202020202017202020202020206D
:1005A0001C000E4BB3F8442402F001020C4BD34064
:1005B0000C4A136008E04FF400420A4B1A6003E053
:1005C000094B1A68074B1A60044B1A8802F007029D
:1005D000044B1B68D340054A13607047002000405D
:1005E0000024F40054010020580100205001002094
:1005F00008B50023054A1381A2F5B0621380A2F862
:10060000443493809385FFF7B7FF08BD80250040F1
:1006100089B2018001207047F0B4224CA488C4F351
:100620004224072C14D8DFE804F0120406080A0C50
:100630000E1002240CE004240AE0082408E0102430
:1006400006E0202404E0402402E0802400E00124AD
:10065000144DB5F8445415F0010F00D06400650145
:10066000114CB4FBF5F6B6FBF1F6B7B207854FF4C3
:100670000067B7FBF5F504FB05F4B4FBF6F4B4FB37
:10068000F1F1A1F5006141F4084189B281840021B2
:10069000017103F03C0302F003021A430273007D70
:1006A000F0BC7047002000400024F400037D13F0EC
:1006B000200F03D0C9B2017001207047002070479D
:1006C000007870470AB1C9B20174007E704700BF5C
:1006D000C9B2017101207047007A704708B505481A
:1006E00000F084FA044800F081FA044800F07EFA31
:1006F000002008BD501A0000681A0000841A00008B
:1007000008B50A4800F072FA094800F06FFA094883
:1007100000F06CFA084800F069FA084800F066FA40
:10072000074800F063FA002008BD00BF841A0000EB
:10073000701A0000881A0000C01A0000E81A0000B1
:10074000181B000008B50A4800F050FA094800F0EC
:100750004DFA094800F04AFA084800F047FA0848FC
:1007600000F044FA074800F041FA002008BD00BF3D
:10077000841A0000701A0000881A0000C01A0000D5
:10078000E81A0000181B000008B5012000F04CFB1F
:10079000002209E0202B03D0092B03D01AB17047A7
:1007A000012200E0012201300378002BF2D17047D2
:1007B000202805D0092805D02C2805D10120704714
:1007C00001207047012070470020704770B5054632
:1007D0000E4606E02046FFF7EBFF28B901362C70E5
:1007E00001353478002CF5D10020287070BD00BF91
:1007F00038B50D20012100F0B3F9044620B90A20D4
:10080000012100F0ADF904460F4B1B689BB90F485E
:1008100000F0ECF90E4D284600F0E8F9284600F00B
:10082000E5F90C4800F0E2F9284600F0DFF9064A45
:1008300013680133136014B9074800F0D7F9002298
:10084000064B1A60204638BD3C010020481B0000C2
:10085000701B0000741B0000A41B0000700500202A
:1008600038B5054600240CE02846094B53F82410FF
:10087000022200F019FB18B9064B53F8240038BDCA
:100880000134044B53F82430002BEDD1002038BD47
:10089000240000200C000020164B1B68012B27D1E0
:1008A00070B50446144D2846FFF7DAFF0646284681
:1008B0001249022200F0F8FA30B9114800F096F916
:1008C000204600F0ADF90DE02EB10D4800F08EF994
:1008D0000C48B04706E0084800F0DEFA10B10A48BC
:1008E00000F084F90022034B1A60FFF781FF70BD0E
:1008F000704700BF740500207C050020A81B000085
:10090000701B00007E050020B01B00000FB400B576
:10091000C3B044AA52F8041B019202A800F000FCE4
:1009200002A800F063F943B05DF804EB04B070472F
:1009300030B589B0044601251CE068462146FFF722
:1009400045FF012D02D0022D08D012E0684600219B
:10095000102200F049FB234B18600AE06846002192
:10096000102200F041FB204B1860402801D94022A2
:100970001A6001352046FFF70BFF04460378002B71
:10098000DBD1184C1948184B19682268FFF7BEFFD5
:100990002268174B1A60012518E0914206D012F028
:1009A0000F0F03D11348FFF7B1FF01252DB11248F6
:1009B0000F4B1968FFF7AAFF00250D4C23680F485D
:1009C0001968FFF7A3FF236804332360054B1968F8
:1009D000054B1B680B44064A12689342DDD8002081
:1009E00009B030BD380100203C000020C41B0000CD
:1009F00040010020701B0000FC1B0000041C0000D4
:100A000010B582B03B48FFF767FE80B210F0010FCF
:100A10006ED100F0060002284ED0042868D10DF1F6
:100A2000070000F0F3F89DF8070043B2032B03D151
:100A30000122314B1A6039E0304B1B68002B35D155
:100A400043B20D2B1AD07F2B01D0082B1AD12C4B7F
:100A50001B685BB3013B2A4A13600021294AD15429
:100A600040B2022100F07CF82020022100F078F84A
:100A70009DF90700022100F073F817E001221F4BD7
:100A80001A6013E01E490B685A1C0A601D49C854BD
:100A9000B2F5807F05D11A4A13600820022100F0C8
:100AA0005FF89DF90700022100F05AF8144B1B680B
:100AB0000021144AD1541BE0134B1B68ABB1012138
:100AC000124A1160013B104A1360114C23685A18F6
:100AD0002260104AD056032100F042F82368B3F593
:100AE000806F05D10022226002E00022074B1A60CD
:100AF00002B010BD005000406805002074050020C1
:100B0000700500207C050020640500206C05002095
:100B1000600500205C01002070B506460D460D48BA
:100B20004FF41041FFF774FD0B4C204631462A4626
:100B30000023FFF771FD204601210022FFF7C2FDCF
:100B400020460321FFF7C4FD4FF40032034B1A6027
:100B500070BD00BF006000400050004000E100E0B8
:100B600038B505460C46032905D11A482946FFF732
:100B70009DFD002038BD184B1A68B2F5806F23D058
:100B8000012904D14FF40031144BC3F88010144BE9
:100B90001B6853B1511C104B1960124B1B68134456
:100BA000C3F30903104AD55406E00A482946FFF763
:100BB0007DFD01220A4B1A60012C08D14FF400324E
:100BC000064B1A60002038BD6FF0010038BD0020D0
:100BD00038BD00BF005000406405002000E100E087
:100BE0006C050020600500205C01002010B5044663
:100BF000002306E0013440B20121FFF7B1FF0346B4
:100C000010B920780028F5D1184610BD10B504465B
:100C10000248FFF755FD207010BD00BF0050004096
:100C200030B585B004462A48FFF7E0FF60686946A2
:100C3000102200F024F96846FFF7D8FF254D28461A
:100C4000FFF7D4FF2448FFF7D1FF207A694610222E
:100C500000F015F96846FFF7C9FF2846FFF7C6FF01
:100C60002068FFF7C3FF1D48FFF7C0FF6089694692
:100C7000102200F004F96846FFF7B8FF2846FFF796
:100C8000B5FF1748FFF7B2FF207B6946102200F03E
:100C9000F6F86846FFF7AAFF2846FFF7A7FF1148B6
:100CA000FFF7A4FF60696946102200F0E8F8684683
:100CB000FFF79CFF20696946102200F0E0F86846C3
:100CC000FFF794FF2846FFF791FF05B030BD00BF46
:100CD0002C1C0000701B00003C1C00004C1C000081
:100CE000541C0000601C000040F6773343607047DE
:100CF0000172704741720260704700BF41817047C6
:100D00003F230373704700BF037A13B14FF0804253
:100D100000E00022417A42EA8152418942EA81128E
:100D2000017B0A43026142689B0843EA82134361E4
:100D3000704700BFF8B504460F4616461D46FFF73C
:100D4000D3FF20463946FFF7D3FF20463146069AA7
:100D5000FFF7D0FF20462946FFF7D0FF2046FFF7D8
:100D6000CFFF2046FFF7D0FFF8BD00BF00B583B02E
:100D700000230193037C02A800F8043DFFF736FF2F
:100D800003B05DF804FB00BF0A4B1B680A4AA2FBD4
:100D900003239B09013BB3F1807F09D2074A5360CB
:100DA000E021074B83F8231000239360072313608F
:100DB000704700BF50010020D34D621010E000E0EA
:100DC00000ED00E0034B1B681BB1024A1368013BB6
:100DD000136070477C06002008B5FFF7F3FF08BDDD
:100DE00008B5FFF70DFE08BD00B589B00A4B0093AA
:100DF00002A801210A462F23FFF79CFF4FF416504B
:100E00000321FFF789FEFFF7BFFF02A8FFF7AEFF40
:100E100002A8FFF741FDFBE76C1C0000014B1868BE
:100E2000704700BFA000002008B5074B044613B16F
:100E30000021AFF30080054B1868836A03B198471F
:100E40002046FFF785FA00BF00000000781C000074
:100E5000931E222B10B50C4602D90020087010BD3D
:100E60000A2A06D1002804DA2D230B704042012102
:100E700000E00021214400F0C5F8204610BDFFF736
:100E8000E7BF10B5431E0A44914204D011F8014B4C
:100E900003F8014FF8E710BD034613F8012B002AB1
:100EA000FBD1181A0138704770B5A2B1451E01393F
:100EB0006B7811F8014F6E1CA34206D16FF001044C
:100EC000641B1444E04202D11C46181B70BD354619
:100ED000002BEDD1F8E7104670BD00002DE9F0477A
:100EE0000F46404CD4F800903D4615F801EB09EB55
:100EF0000E04667806F0080404F0FF060CB12F46D5
:100F0000F2E774462D2C03D1BD1C7C78012603E04A
:100F10002B2C04BF7C78BD1C13B1102B0AD15AE0D6
:100F2000302C56D12C7804F0DF04582C4CD16C783E
:100F300010230235002E14BF4FF000486FF0004818
:100F4000B8FBF3FA0027BE4603FB1A8809EB040C32
:100F50009CF801C01CF0040F01D0303C0BE01CF0E9
:100F6000030C1BD0BCF1010F0CBF4FF0370C4FF03E
:100F7000570CCCEB04049C4210DAB7F1FF3F0AD0C7
:100F8000D64506D801D1444503DC03FB0E4E0127AC
:100F900001E04FF0FF3715F8014BD7E77C1C734693
:100FA0000AD1002E4FF0220114BF4FF000436FF022
:100FB000004301602AB911E00EB1CEF100036AB11D
:100FC00007B1691E116009E03024002BB2D108235B
:100FD000B0E70A23AEE7302CACD1A3E71846BDE852
:100FE000F08700BFA400002030B505460C4613462C
:100FF000034A294610682246BDE83040FFF76EBF1D
:10100000A0000020F0B58BB003460F466D461A4C89
:1010100004F1200E2E4620686168083403C674452A
:101020003546F7D1217920683171911E222930602F
:101030004FF0000001D938701CE07D1EB3FBF2F4C4
:1010400002FB14330AAE334413F8283C411C05F864
:10105000013F23460CB10846F0E77C543A18C11A08
:101060008B4206DAF95C1478FC5402F8011901335A
:10107000F5E738460BB0F0BD7C1C000030B5141EFF
:101080009BB0054604DA8B2303604FF0FF301CE071
:101090004FF40272ADF80C200CBF224604F1FF326F
:1010A000029205924FF6FF7200910491ADF80E2066
:1010B00069461A461E9B00F09BF8431CBCBF8B235D
:1010C0002B6014B1009B00221A701BB030BD0000D1
:1010D00073B506460D4614460093044B3146186816
:1010E0002A462346FFF7CAFF02B070BDA0000020C9
:1010F00010B59AB0009104916FF0004102910591F2
:101100004FF6FF714FF40274ADF80E106946ADF85A
:101110000C4000F06DF8009B00221A701AB010BD50
:1011200030B505460C461346034A29461068224648
:10113000BDE83040FFF7DCBFA00000202DE9F047FC
:101140008E688246B3420C469046994640D38A89BF
:1011500012F4906F3AD02568096902236F1A656905
:1011600005EB450595FBF3F57B1C4B449D4238BFD1
:101170001D4653050FD5294600F030FB064698B1B1
:1011800021693A46FFF77DFEA38923F4906343F07B
:101190008003A38113E02A4600F076FB064670B96F
:1011A0005046216900F0D6FA0C23CAF80030A38912
:1011B0004FF0FF3043F04003A381BDE8F087266184
:1011C0003E4426604E466561ED1BA560B14500D2E8
:1011D0004E4632462068414600F0A0FAA36800203F
:1011E0009B1BA36023681E442660BDE8F0870000B7
:1011F0002DE9F0439DB003938B8906461C060D46EE
:1012000090460CD50B6953B9402100F0E7FA2860ED
:10121000286110B90C233360CCE040236B610023BC
:10122000099320238DF8293030238DF82A30434646
:101230001C4613F8012B1AB9B4EB08090FD002E0D1
:10124000252AF5D1F8E73046294642464B46FFF7B6
:1012500075FF013000F0A980099B4B440993237866
:10126000002B00F0A28000234FF0FF32049307937D
:10127000059206938DF853301A9304F10108444601
:10128000DFF8489121784846052200F039FA08F144
:101290000108049B30B1C9EB0000012282401343D6
:1012A0000493ECE7D80644BF20228DF85320190799
:1012B00044BF2B228DF8532022782A2A02D0079986
:1012C00023460EE0039A0134111D12680391002A8F
:1012D000BBBF524243F0020307920792B8BF049388
:1012E0000AE01C4622780133303A092A03D80A2042
:1012F00000FB0121F5E7079123782E2B1AD16378A3
:101300002A2B0AD1039B02341A1D1B680392002B5F
:10131000B8BF4FF0FF3305930CE0611C00220C4670
:1013200023780131303B092B03D80A2000FB02321D
:10133000F5E70592DFF8988021784046032200F017
:10134000DFF938B1049AC8EB00004023834013430F
:101350000493013421781A48062204F101088DF81B
:10136000281000F0CDF988B1164B33B9039B073331
:1013700023F007030833039313E003AB00933046D5
:1013800004A92A46104BAFF3008007E003AB00939B
:10139000304604A92A460C4B00F092F8421C07463E
:1013A00003D0099B3B44099341E7AB895B0601D419
:1013B000099801E04FF0FF301DB0BDE8F08300BF99
:1013C000AC1D0000000000003D110000A21D000047
:1013D000A81D00002DE9F84391461F468A680B6955
:1013E00006469342B8BF1346C9F8003091F843202F
:1013F0000C46DDF8208012B10133C9F800302368B3
:10140000990642BFD9F800300233C9F80030256888
:1014100015F006051CD094F843302268003318BF3D
:10142000012392061FD5E118302081F843005A1C91
:1014300094F845102244023382F8431013E03046FA
:10144000394604F119020123C047013007D00135A4
:10145000E368D9F800209B1A9D42F0DBDBE74FF0F0
:10146000FF30BDE8F8833046394604F14302C047F7
:101470000130F4D02268D9F80050E36802F0060287
:10148000042A08BF5D1B2269A3680CBF25EAE57525
:1014900000259342C4BF9B1AED184FF00009A945DF
:1014A0000ADA3046394604F11A020123C0470130F6
:1014B000D5D009F10109F2E70020BDE8F88300006A
:1014C0002DE9FF410C461746227E98466E2A0646B5
:1014D0000A9B01F1430100F0B08012D8632A23D0A7
:1014E0000AD8002A00F0BD80582A40F0CC8084F849
:1014F0004520DFF804E257E0642A1ED0692A1CD098
:10150000C1E0732A00F0B18009D86F2A2ED0702A6A
:1015100040F0B980226842F0200222603FE0752A44
:1015200024D0782A3BD0AEE01A6804F14205111DA0
:101530001960136884F84230A9E020681A6810F036
:10154000800F02D0101D186008E010F0400F02F16B
:101550000400186002D0B2F9003000E01368002BDC
:101560003EDA2D225B4284F8432039E020681A6875
:1015700010F0800F02D0101D186007E010F0400F2F
:1015800002F10400186001D0138800E01368227E85
:10159000DFF864E16F2A0CBF08220A221CE07822DF
:1015A000DFF858E184F845202268186812F0800FAF
:1015B00000F104051D6003D1550601D5038800E044
:1015C0000368D00744BF42F0200222601BB92268A2
:1015D00022F0200222601022002084F8430002E062
:1015E000DFF814E10A226568002DA8BF2068A56015
:1015F000A4BF20F00400206003B965B10D46B3FB21
:10160000F2F002FB10331EF8033005F8013D0346EB
:101610000028F4D100E00D46082A0BD12368DA0730
:1016200008D5236962689A42DEBF302305F8013C81
:1016300005F1FF35491B21612EE025681A6815F078
:10164000800F606903D0151D1D60136808E015F058
:10165000400F02F104051D60136801D0188000E0FE
:101660001860002323610D4616E01A68111D1960E9
:10167000156800212846626800F042F808B1401B56
:101680006060636804E004F1420584F842200123AD
:101690002361002384F84330CDF800803046214692
:1016A00003AA3B46FFF796FE013002D14FF0FF3010
:1016B0001FE0304639462A462369C0470130F5D03D
:1016C00023689B0705D4E068039B9842B8BF18467F
:1016D0000FE00025E368039A9B1A9D42F3DA304637
:1016E000394604F119020123C0470130DED001352B
:1016F000F0E704B0BDE8F081B31D0000C41D000098
:1017000010B5C9B202449042034605D01C7801309E
:101710008C42F8D1184610BD002010BD814210B592
:1017200001EB020301D3421E0BE09842FBD2811869
:10173000D21AD34204D013F8014D01F8014DF8E755
:1017400010BD994204D011F8014B02F8014FF8E79F
:1017500010BD000030B500293CD051F8042C0B1FFF
:101760001D49002AB8BF9B180A680C4612B95A6076
:101770000B6030BD93420DD219685818904201BFDA
:101780005A5852181A60426823605A6030BD994214
:1017900003D80A4651680029F9D1146815199D42E9
:1017A0000AD11B682344D0188842136012D10868FC
:1017B000034413604B680CE002D90C23036030BD76
:1017C0001C681819884201BF086849680019186028
:1017D0005960536030BD00BF4801002070B5CC1C7B
:1017E00024F0030408340C2C38BF0C24002C0646CB
:1017F00003DA0C233360002070BD8C42F9D3204AF9
:10180000136810461946A1B10A68121B0ED40B2AA0
:1018100003D90A608B188C501FE08B420BBF5A68AB
:101820004A6802605A6018BF0B4616E00B464968CA
:10183000E9E7144D2B681BB9304600F04BF82860DF
:101840003046214600F046F8421C0346D1D0C51C64
:1018500025F0030585420AD11C6003F10B001A1D17
:1018600020F00700821A0AD05142995070BD3046CC
:10187000E91A00F02FF80130BBD02B46ECE770BD21
:101880004801002044010020F8B5074615460E46E1
:1018900021B91146BDE8F840FFF7A0BF1AB9FFF71C
:1018A00059FF2846F8BD00F025F8A8420ED2384668
:1018B0002946FFF793FF044650B131462A46FFF709
:1018C000E0FA38463146FFF745FF01E03046F8BD03
:1018D0002046F8BD38B5064C00230546084623606F
:1018E000FEF738FD431C02D1236803B12B6038BDDD
:1018F0004C01002051F8040C0028BEBF091851F813
:10190000043CC01804387047537461636B206672DE
:10191000616D653A0A000000205230203D202025EC
:101920003038580A00000000205231203D20202588
:101930003038580A00000000205232203D20202577
:101940003038580A00000000205233203D20202566
:101950003038580A0000000020523132203D202546
:101960003038580A00000000204C52203D2020252D
:101970003038580A00000000205043203D20202528
:101980003038580A0000000020505352203D2025D6
:101990003038580A000000004653522F4641523A50
:1019A0000A0000002043465352203D2020253038B5
:1019B000580A00002048465352203D202025303848
:1019C000580A00002044465352203D20202530383C
:1019D000580A00002041465352203D20202530382F
:1019E000580A0000204D4D464152203D20253038F8
:1019F000580A00002042464152203D202025303820
:101A0000580A00004D6973630A000000204C522FF1
:101A10004558435F52455455524E3D202530385865
:101A20000A0000005B486172644661756C745D0A6F
:101A3000000000005B4275734661756C745D0A00BE
:101A40005B55736167654661756C745D0A000000E3
:101A500053572076657273696F6E206F6620434C12
:101A6000492044656D6F3A0056302E310000000069
:101A7000417661696C61626C6520636F6D6D616E4A
:101A800064733A0D0A0000002068656C7020202005
:101A90002020202020202020202020202020202046
:101AA0002D20446973706C617920617661696C6185
:101AB000626C6520636F6D6D616E64730D0A00006A
:101AC0002076657273696F6E2020202020202020F0
:101AD00020202020202020202D20535720766572A2
:101AE00073696F6E0D0A00002064756D70205B6273
:101AF0006567616464725D5B2C636F756E745D20F5
:101B00002D2044756D707320746865206D656D6F50
:101B100072790D0A00000000207265736574202040
:101B200020202020202020202020202020202020B5
:101B30002D205265736574206170706C69636174E7
:101B4000696F6E0D0A000000092057656C636F6DA8
:101B50006520746F20436F6D6D616E64204C696EFB
:101B60006520496E746572707265746572212121F9
:101B70000D0A00003E3E5479706520696E203C6875
:101B8000656C703E20746F207365652061766169B5
:101B90006C61626C6520636F6D6D616E64732E0D98
:101BA000000000003E3E00007061636B6574000041
:101BB0000D0A556E6B6E6F776E20636F6D6D616E83
:101BC000642100004845582064756D70206F6620C0
:101BD000746865206D656D6F7279202830782530C6
:101BE00032582062797465732066726F6D20307888
:101BF00025303858293A0D0A0000000020253038D9
:101C0000583A2000253038582000000068656C7074
:101C10000000000076657273696F6E0064756D7008
:101C20000000000072657365740000000D0A5072B8
:101C300065616D626C653A093078000042656568DF
:101C40006976652049443A09307800003A0909303C
:101C5000780000004543433A09093078000000004D
:101C60005061636B65743A0909307800576569679C
:101C7000687400004300000040000020303132331F
:101C80003435363738396162636465666768696A16
:101C90006B6C6D6E6F707172737475767778797A1C
:101CA000000020202020202020202028282828284C
:101CB0002020202020202020202020202020202024
:101CC000202088101010101010101010101010107C
:101CD000101004040404040404040404101010107C
:101CE0001010104141414141410101010101010137
:101CF00001010101010101010101010101101010A7
:101D00001010104242424242420202020202020209
:101D10000202020202020202020202020210101079
:101D20001020000000000000000000000000000083
:101D300000000000000000000000000000000000A3
:101D40000000000000000000000000000000000093
:101D50000000000000000000000000000000000083
:101D60000000000000000000000000000000000073
:101D70000000000000000000000000000000000063
:101D80000000000000000000000000000000000053
:101D90000000000000000000000000000000000043
:101DA0000000232D302B2000686C4C0065666745D1
:101DB00046470030313233343536373839414243C3
:101DC0004445460030313233343536373839616274
:051DD00063646566007C
:101DD80078563412B400002000000000010700000B
:101DE800DD060000310900008907000045070000F2
:101DF800000000000C1C0000141C00001C1C00004B
:101E0800241C0000A81B0000F81B000010000000A4
:101E180000000000000000000000000000000000BA
:101E280000000000000000000000000000000000AA
:101E3800741C00000000000000000000000000000A
:101E4800000000000000000000000000000000008A
:101E5800000000000000000000000000000000007A
:101E6800000000000000000000000000000000006A
:0C1E780040000020A11C000032547698AD
:04000003000000E118
:00000001FF
